:100339002020202057454C434F4D452100484F4D23
:1003490045204155544F4D4154494F4E00496E691E
:100359007469616C697A696E6720546865005379BC
:100369007374656D2E002E00383035312069732085
:1003790052656164790041540041542B434D47460D
:100389003D310041542B434E4D493D322C322C30E6
:100399002C302C300047534D20697320526561641D
:1003A90079004C4947485431204F4E004C49474841
:1003B9005431204F4646004C4947485432204F4E4D
:1003C900004C4947485432204F46460046414E208A
:1003D9004F4E0046414E204F4646004D6F74696F9F
:0C03E9006E204465746563746564210037
:10059E00015B01017001015700015A000158000171
:1005AE004E01014F02015003015104015205015346
:0D05BE000601540701550801560901590AAC
:1000030012065412063B1206847BFF7A03793912D7
:1000130005D212061C7F011206641205CC7FD07E26
:10002300071206207F011206647F801206647BFF9D
:100033007A0379561205D27FC01206647BFF7A03D6
:1000430079671205D212061C7FC71206647BFF7AFA
:1000530003796F1205D212061C7FC81206647BFF58
:100063007A03796F1205D27FD07E071206207F01B3
:100073001206647BFF7A0379711205D212061C7B88
:10008300FF7A03797F1205F77F0D1206907FF47EC6
:10009300011206207BFF7A0379821205F77F0D1286
:1000A30006907FF47E011206207BFF7A03798C127F
:1000B30005F77F0D1206907FF47E011206207F0163
:1000C3001206647BFF7A03799E1205D27FD07E07E6
:1000D3001206207F011206641205CC209803020346
:1000E3000D745C255BF8A699745C255BF8E6B42A6D
:1000F30010755701755B01757001745C255BF876AB
:100103002AE557B40110745C255BF8E6FF740825F3
:1001130070F8A60705707408254EF8E6642A704740
:100123007408254FF8E6644C703D74082550F8E6D2
:100133006431703374082551F8E6644F70297408EC
:100143002552F8E6B44E207F011206647BFF7A0342
:1001530079AB1205D2D291757001755B01E4F55745
:1001630074082552F876237408254EF8E6642A703D
:10017300517408254FF8E6644C704774082550F80D
:10018300E66431703D74082551F8E6644F703374AA
:10019300082552F8E66446702974082553F8E6B436
:1001A30046207F011206647BFF7A0379B51205D2DC
:1001B300C291757001755B01E4F55774082552F817
:1001C30076237408254EF8E6642A70477408254F91
:1001D300F8E6644C703D74082550F8E664327033D9
:1001E30074082551F8E6644F702974082552F8E61F
:1001F300B44E207F011206647BFF7A0379C0120597
:10020300D2D292757001755B01E4F55774082552DB
:10021300F876237408254EF8E6642A70517408258D
:100223004FF8E6644C704774082550F8E664327062
:100233003D74082551F8E6644F703374082552F86D
:10024300E66446702974082553F8E6B446207F0116
:100253001206647BFF7A0379CA1205D2C2927570C3
:1002630001755B01E4F55774082552F87623740889
:10027300254EF8E6642A703D7408254FF8E6644677
:10028300703374082550F8E6644F702974082551BB
:10029300F8E6B44E207F011206647BFF7A0379D51A
:1002A3001205D2D290757001755B01E4F55774089D
:1002B3002551F876237408254EF8E6642A704774AE
:1002C30008254FF8E66446703D74082550F8E66447
:1002D3004F703374082551F8E66446702974082575
:1002E30052F8E6B446207F011206647BFF7A037955
:1002F300DC1205D2C290757001755B01E4F5577489
:10030300082551F87623C298055B20B4030200DE6A
:10031300E55860030200DE7F011206647F80120647
:10032300647BFF7A0379E41205D2D291D292D29000
:060333007558010200DE16
:10065400D2B4E4F5A0C2B6C2B7C291C292C290228B
:10063B007F381206647F0C1206647F011206647FFA
:09064B00061206647F80020664B9
:100664008FA0C2B6D2B77F027E00120620C2B72284
:100674008FA0D2B6D2B77F027E00120620C2B72264
:0605CC007BFF7A03794673
:1005D2008B798A7A897BAB79AA7AA97B1203F56037
:1005E20013057BE57B7002057A14F91203F5FF12FD
:0505F200067480E22206
:040525008E718F72D2
:10052900757301C3E5716480948050107F2D1206A4
:1005390074C3E49572F572E49571F571E5724571CC
:1005490070057F30120674D3E5729400E5716480FA
:1005590094804029AE71AF727C007D0A12040EEDC1
:100569002430FF74742573F8A607AE71AF727C004E
:100579007D0A12040E8E718F72057380CA1573E598
:1005890073D39400400E74742573F8E6FF12067451
:04059900157380EB6B
:01059D00223B
:04061C007FE87E03F2
:10062000D3EF9400EE64809480400F7DFADDFE7D70
:0A063000FADDFEEF1F70E91E80E600
:01063A00229D
:0C068400758920758DFD759850D28E226E
:080690008F993099FDC29922F7
:1005F7008B798A7A897BAB79AA7AA97B1203F56012
:1006070013057BE57B7002057A14F91203F5FF12D7
:05061700069080E222C4
:030000000204995E
:0C049900787FE4F6D8FD75817B0204E05A
:1003F500BB010689828A83E0225002E722BBFE0206
:09040500E32289828A83E4932238
:10040E00C2D5EC30E709B2D5E4C39DFDE49CFCEE09
:10041E0030E715B2D5E4C39FFFE49EFE120444C339
:10042E00E49DFDE49CFC800312044430D507C3E434
:06043E009FFFE49EFE2278
:1004A500020003E493A3F8E493A34003F68001F26A
:1004B50008DFF48029E493A3F85407240CC8C33358
:1004C500C4540F4420C8834004F456800146F6DF27
:1004D500E4800B010204081020408090059EE47E14
:1004E500019360BCA3FF543F30E509541FFEE4931C
:1004F500A360010ECF54C025E060A840B8E493A3E3
:10050500FAE493A3F8E493A3C8C582C8CAC583CA0D
:10051500F0A3C8C582C8CAC583CADFE9DEE780BEC5
:0105CB00002F
:10044400BC000BBE0029EF8DF084FFADF022E4CC9C
:10045400F875F008EF2FFFEE33FEEC33FCEE9DEC65
:10046400984005FCEE9DFE0FD5F0E9E4CEFD22EDAB
:10047400F8F5F0EE8420D21CFEADF075F008EF2FF5
:10048400FFED33FD4007985006D5F0F222C398FDE6
:050494000FD5F0EA2283
:00000001FF
