:1002490054656D70657261747572652000436F6ED7
:1002590074726F6C6C65720054656D70657261744F
:100269007572653A004300436F6F6C696E6720537E
:10027900797374656D006973206F6E2E0020546563
:040289006D703A005A
:03031400011100D4
:1000A700750803E4F5A0C2B0C2B1C2B51202D37F8E
:1000B700011203007BFF7A02794912028D7FC01279
:1000C70003007BFF7A02795612028D7FD07E0712DA
:1000D70002B87F011203007BFF7A02796112028D59
:1000E7007F8C1203008036E512D39426404B75119E
:1000F700017F011203007F801203007BFF7A0279E0
:100107007012028D7FC01203007BFF7A02797F1283
:10011700028DD2B57BFF7A02798612028D1202EC2C
:100127008F127E001201D07BFF7A02796E12028D48
:0D0137007FB87E0B1202B880AEC2B5809575
:1002D3007F011203007F381203007F0C1203007F9B
:0902E300061203007F80020300F3
:0A0300008FA0C2B01202B2C2B122F7
:0A030A008FA0D2B01202B2C2B122DD
:10028D008B098A0A890BAB09AA0AA90B1200036014
:10029D0013050BE50B7002050A14F9120003FF128A
:0502AD00030A80E222BB
:0401D0008E098F0AFB
:1001D400750B01C3E5096480948050107F2D1203D0
:1001E4000AC3E4950AF50AE49509F509E50A4509FF
:1001F40070057F3012030AD3E50A9400E509648090
:1002040094804029AE09AF0A7C007D0A12001CEDDF
:100214002430FF740C250BF8A607AE09AF0A7C0046
:100224007D0A12001C8E098F0A050B80CA150BE586
:100234000BD39400400E740C250BF8E6FF12030A4E
:04024400150B80EB2B
:010248002293
:1002EC00C2B2D2B41202B4D2B220B3FDC2B4120262
:0302FC00B4AF900C
:0102FF0022DC
:0602B200D2B17F027E00C4
:1002B800D3EF9400EE64809480400F7DFADDFE7DDC
:0A02C800FADDFEEF1F70E91E80E66C
:0102D2002209
:03000000020144B6
:0C014400787FE4F6D8FD75811202018B73
:10000300BB010689828A83E0225002E722BBFE02FB
:09001300E32289828A83E493222E
:10001C00C2D5EC30E709B2D5E4C39DFDE49CFCEEFF
:10002C0030E715B2D5E4C39FFFE49EFE120052C325
:10003C00E49DFDE49CFC800312005230D507C3E420
:06004C009FFFE49EFE226E
:100150000200A7E493A3F8E493A34003F68001F21E
:1001600008DFF48029E493A3F85407240CC8C333B0
:10017000C4540F4420C8834004F456800146F6DF7F
:10018000E4800B0102040810204080900314E47EF8
:10019000019360BCA3FF543F30E509541FFEE49374
:1001A000A360010ECF54C025E060A840B8E493A33B
:1001B000FAE493A3F8E493A3C8C582C8CAC583CA66
:1001C000F0A3C8C582C8CAC583CADFE9DEE780BE1E
:0103170000E5
:10005200BC000BBE0029EF8DF084FFADF022E4CC92
:10006200F875F008EF2FFFEE33FEEC33FCEE9DEC5B
:10007200984005FCEE9DFE0FD5F0E9E4CEFD22EDA1
:10008200F8F5F0EE8420D21CFEADF075F008EF2FEB
:10009200FFED33FD4007985006D5F0F222C398FDDC
:0500A2000FD5F0EA2279
:00000001FF
