:1006440020202057656C636F6D6520496E00202063
:1006540020536D61727420486F6D65005379737413
:10066400656D2069732052656164790042554C427E
:1006740031204F4E0042554C4232204F46462C46C4
:10068400414E204F46460042554C4232204F46468A
:100694002C46414E204F4E0042554C4232204F4E84
:1006A4002C46414E204F46460042554C4232204F84
:1006B4004E2C46414E204F4E0042554C4231204F65
:0306C400464600A7
:0307C3000113031C
:10000300E4F5A0C280C281C290C291C29212078A53
:100013007F011207A37BFF7A0679441207467FC04C
:100023001207A37BFF7A06795212074612076B7FEA
:10003300011207A37BFF7A06796012074630B303E8
:1000430002010230B20302010230B10302010220B5
:10005300B003020102D29030902420912120921EFD
:100063007F011207A37F801207A31207407FC012EC
:1000730007A37BFF7A06797912074612076B309044
:100083002420912130921E7F011207A37F80120743
:10009300A31207407FC01207A37BFF7A06798B1256
:1000A300074612076B30902430912120921E7F0166
:1000B3001207A37F801207A31207407FC01207A372
:1000C3007BFF7A06799C12074612076B2090030286
:1000D30000402091030200402092030200407F0170
:1000E3001207A37F801207A31207407FC01207A342
:1000F3007BFF7A0679AD12074612076B0200403088
:10010300B3030201DC30B2030201DC20B1030201BC
:10011300DC30B0030201DCC29020902A209127201A
:1001230092247F011207A37F801207A37BFF7A0625
:1001330079BD1207467FC01207A37BFF7A06797940
:1001430012074612076B20902A2091273092247FB2
:10015300011207A37F801207A37BFF7A0679BD12E2
:1001630007467FC01207A37BFF7A06798B120746E7
:1001730012076B20902A3091272092247F011207C7
:10018300A37F801207A37BFF7A0679BD1207467F00
:10019300C01207A37BFF7A06799C12074612076BEE
:1001A3003090030201022091030201022092030214
:1001B30001027F011207A37F801207A37BFF7A0648
:1001C30079BD1207467FC01207A37BFF7A0679AD7C
:1001D30012074612076B02010230B3030202AA3070
:1001E300B2030202AA20B1030202AA20B003020250
:1001F300AAD29120902A3091272092247F011207BE
:10020300A37F801207A37BFF7A0679BD1207467F7F
:10021300C01207A37BFF7A06799C12074612076B6D
:1002230020902A3091273092247F011207A37F80E8
:100233001207A37BFF7A0679BD1207467FC0120718
:10024300A37BFF7A0679AD12074612076B30902421
:1002530030912120921E7F011207A37F801207A3F2
:100263001207407FC01207A37BFF7A06799C12070F
:100273004612076B2090030201DC2091030201DC8C
:100283002092030201DC7F011207A37F801207A3E0
:100293001207407FC01207A37BFF7A0679AD1207CE
:1002A3004612076B0201DC30B30302037820B2036A
:1002B30002037830B10302037830B003020378C23B
:1002C3009120902A2091272092247F011207A37F57
:1002D300801207A37BFF7A0679BD1207467FC012FF
:1002E30007A37BFF7A06797912074612076B2090E2
:1002F3002A2091273092247F011207A37F801207BF
:10030300A37BFF7A0679BD1207467FC01207A37B42
:10031300FF7A06798B12074612076B3090242091DF
:100323002120921E7F011207A37F801207A31207C9
:10033300407FC01207A37BFF7A0679791207461222
:10034300076B2090030202AA3091030202AA2092B3
:10035300030202AA7F011207A37F801207A31207D9
:10036300407FC01207A37BFF7A06798B12074612E0
:10037300076B0202AA30B30302044620B20302044D
:100383004630B10302044620B003020446D2922051
:10039300902A2091273092247F011207A37F801295
:1003A30007A37BFF7A0679BD1207467FC01207A316
:1003B3007BFF7A06798B12074612076B20902A304F
:1003C30091273092247F011207A37F801207A37B1A
:1003D300FF7A0679BD1207467FC01207A37BFF7A17
:1003E3000679AD12074612076B3090242091213015
:1003F300921E7F011207A37F801207A31207407F7B
:10040300C01207A37BFF7A06798B12074612076B8C
:1004130020900302037820910302037820920302C1
:1004230003787F011207A37F801207A31207407F7F
:10043300C01207A37BFF7A0679AD12074612076B3A
:1004430002037830B30302004020B20302004020CD
:10045300B10302004030B003020040C29220902A50
:100463002091272092247F011207A37F801207A3E4
:100473007BFF7A0679BD1207467FC01207A37BFF75
:100483007A06797912074612076B20902A30912752
:100493002092247F011207A37F801207A37BFF7A98
:1004A3000679BD1207467FC01207A37BFF7A067940
:1004B3009C12074612076B30902420912120921E34
:1004C3007F011207A37F801207A31207407FC01288
:1004D30007A37BFF7A06797912074612076B2090F0
:1004E30003020446209103020446309203020446A9
:1004F3007F011207A37F801207A31207407FC01258
:1005030007A37BFF7A06799C12074612076B020446
:0105130046A1
:10078A007F011207A37F381207A37F0C1207A37FEA
:09079A00061207A37F800207A3E9
:1007A3008FA0C280D2817F027E0012076FC2812296
:1007B3008FA0D280D2817F027E0012076FC2812276
:060740007BFF7A067970D0
:100746008B108A118912AB10AA11A9121205146016
:10075600130512E5127002051114F9120514FF12A1
:0507660007B380E22250
:0406C7008E088F0901
:1006CB00750A01C3E5086480948050107F2D1207D2
:1006DB00B3C3E49509F509E49508F508E509450860
:1006EB0070057F301207B3D3E5099400E5086480E9
:1006FB0094804029AE08AF097C007D0A12052DEDD0
:10070B002430FF740B250AF8A607AE08AF097C004E
:10071B007D0A12052D8E088F09050A80CA150AE578
:10072B000AD39400400E740B250AF8E6FF1207B3A8
:04073B00150A80EB30
:01073F002297
:04076B007FE87E03A2
:10076F00D3EF9400EE64809480400F7DFADDFE7D20
:0A077F00FADDFEEF1F70E91E80E6B0
:01078900224D
:030000000205B83E
:0C05B800787FE4F6D8FD7581130205FF82
:10051400BB010689828A83E0225002E722BBFE02E5
:09052400E32289828A83E4932218
:10052D00C2D5EC30E709B2D5E4C39DFDE49CFCEEE9
:10053D0030E715B2D5E4C39FFFE49EFE120563C3F9
:10054D00E49DFDE49CFC800312056330D507C3E4F4
:06055D009FFFE49EFE2258
:1005C400020003E493A3F8E493A34003F68001F24A
:1005D40008DFF48029E493A3F85407240CC8C33338
:1005E400C4540F4420C8834004F456800146F6DF07
:1005F400E4800B01020408102040809007C3E47ECD
:10060400019360BCA3FF543F30E509541FFEE493FB
:10061400A360010ECF54C025E060A840B8E493A3C2
:10062400FAE493A3F8E493A3C8C582C8CAC583CAED
:10063400F0A3C8C582C8CAC583CADFE9DEE780BEA5
:0107C6000032
:10056300BC000BBE0029EF8DF084FFADF022E4CC7C
:10057300F875F008EF2FFFEE33FEEC33FCEE9DEC45
:10058300984005FCEE9DFE0FD5F0E9E4CEFD22ED8B
:10059300F8F5F0EE8420D21CFEADF075F008EF2FD5
:1005A300FFED33FD4007985006D5F0F222C398FDC6
:0505B3000FD5F0EA2263
:00000001FF
