:020000000130CD
:10003000113C1151115E11A011E70130E4F530F5CA
:1000400031F532F533F534F535C3920A920B920C43
:1000500022900300E49331D6A3600280F722315648
:10006000312A200B35200C3231E3540FF530315654
:10007000312A200A25200C2231E3F5323156312A6B
:10008000200B17200C1431E3540FF5313156312A6F
:10009000200A07200B0431E3019F31C10200302206
:1000A000E5308531F0AF32BF2B0825F0F5337534DC
:1000B0002B22BF2D1295F04006F53375342B22F418
:1000C00004F53375342D22BF2A07A4F53375342B7C
:1000D00022BF2F1285F03584F533740AA48535F0DC
:1000E00084F53575342B22AF35BF0021AE34BE2BDD
:1000F0002EE53375F00A84600C443031E3E5F044BA
:100100003031E32125E5F0443031E32125E5334466
:100110003031E3742E31E3E535443031E321257489
:100120002D31E301F131FE31FE22B42B02214FB417
:100130002D02214FB42A02214FB42F02214FB43D8A
:1001400007C20AC20BD20C22D20AC20BC20C22C2B4
:100150000AD20BC20C227590FF75B000E590540FC7
:03016000B40FF6E3
:100163001201F5E590540FB40F0280F41201F5E586
:1001730090540FB40F0280E875B0FEE590540FB4AD
:100183000F2175B0FDE590540FB40F1C75B0FBE55E
:1001930090540FB40F1775B0F7E590540FB40F12C6
:1001A300020163900306800D90030A800890030EFA
:1001B3008003900312135003A380FAE4932231F0D7
:1001C300900316E49331E331F5A3600280F531FE29
:1001D30031F022F5A0C280C281D28231F5C28222DF
:1001E300F5A0D280C281D28231F5C282227401315C
:1001F300D622783279FFD9FED8FA22780779BE7AE7
:08020300FFDAFED9FAD8F62259
:10030000380F010680003738392F3435362A31321C
:0E031000332D00303D2B4552524F522121001B
:00000001FF
