:10029E005041535357442050524F544543544544B4
:1002AE000020202047415241474520444F4F5200E5
:1002BE00202020204F50454E494E4700544845209F
:1002CE0047415241474520444F4F52002020444F52
:1002DE004F52204F50454E45442100444F4F52201F
:1002EE0049532000414C5245414459204F50454EF0
:1002FE004544210020202020434C4F53494E4700B7
:10030E002020444F4F5220434C4F5345442100442C
:10031E004F4F5220495300414C52454144592043BE
:07032E004C4F534544210030
:07050B0001140302080000C7
:10043A001205031204D07BFF7A02799E12048A7F86
:10044A00C01204EF7BFF7A0279AF12048A7FE87E3A
:10045A00031204B5C291C29075B0FF7FE87E031201
:10046A0004B5E5B0540FFFBF0A03120003E5B05408
:0A047A000FFFBF0BED1200FF80E83A
:10000300E5B0540F640A60F8E5B0540F750A00F5C3
:100013000BE5B0540F640160F8E5B0540F750C00A4
:10002300F50DE5B0540F640260F8E5B0540F750E9A
:1000330000F50FE5B0540F640360F8E5B0540F7595
:100043001000F511E5B0540F640460F8E50B64018A
:10005300450A7057E50D6402450C704FE50F6403C4
:10006300450E7047E51164044510703FE5094508E6
:1000730070397F011204EF7F801204EF7BFF7A0255
:1000830079BE12048A7FC01204EF120484D290C294
:10009300917F887E131204B51204E97BFF7A0279FB
:1000A300DA12048A75080075090122E50B6401451B
:1000B3000A7048E50D6402450C7040E50F64034582
:1000C3000E7038E511640445107030E5096401458C
:1000D3000870287F011204EF7F801204EF7BFF7A00
:1000E3000279E912048A7FC01204EF7BFF7A027956
:0C00F300F212048A7FD07E071204B522AE
:1000FF00E5B0540F640B60F8E5B0540F750A00F5C6
:10010F000BE5B0540F640160F8E5B0540F750C00A7
:10011F00F50DE5B0540F640260F8E5B0540F750E9D
:10012F0000F50FE5B0540F640360F8E5B0540F7598
:10013F001000F511E5B0540F640460F8E50B64018D
:10014F00450A7058E50D6402450C7050E50F6403C5
:10015F00450E7048E511640445107040E5096401CF
:10016F00450870387F011204EF7F801204EF7BFF88
:10017F007A03790212048A7FC01204EF120484C238
:10018F0090D2917F887E131204B51204E97BFF7A17
:10019F0003790E12048AE4F508F50922E50B6401D0
:1001AF00450A7046E50D6402450C703EE50F640389
:1001BF00450E7036E51164044510702EE5094508AB
:1001CF0070287F011204EF7F801204EF7BFF7A0308
:1001DF00791D12048A7FC01204EF7BFF7A03792501
:0B01EF0012048A7FD07E071204B522A4
:08050300E4F5A0C296C29722A4
:1004D0007F011204EF7F381204EF7F0C1204EF7FCC
:0904E000061204EF7F800204EF14
:0604E900C291C2907F01E8
:0A04EF008FA0C2961204AFC297223C
:0A04F9008FA0D2961204AFC2972222
:060484007BFF7A0279CA39
:10048A008B1D8A1E891FAB1DAA1EA91F1201FA60A5
:10049A0013051FE51F7002051E14F91201FAFF1257
:0504AA0004F980E222CC
:0403C1008E158F16F0
:1003C500751701C3E5156480948050107F2D1204C4
:1003D500F9C3E49516F516E49515F515E5164515D5
:1003E50070057F301204F9D3E5169400E515648095
:1003F50094804029AE15AF167C007D0A120213EDDC
:100405002430FF74182517F8A607AE15AF167C0023
:100415007D0A1202138E158F16051780CA1517E56A
:1004250017D39400400E74182517F8E6FF1204F947
:04043500151780EB2C
:0104390022A0
:0604AF00D2977F027E00DF
:1004B500D3EF9400EE64809480400F7DFADDFE7DDD
:0A04C500FADDFEEF1F70E91E80E66D
:0104CF00220A
:03000000020335C3
:0C033500787FE4F6D8FD75811F02037C80
:1001FA00BB010689828A83E0225002E722BBFE0203
:09020A00E32289828A83E4932235
:10021300C2D5EC30E709B2D5E4C39DFDE49CFCEE06
:1002230030E715B2D5E4C39FFFE49EFE120249C333
:10023300E49DFDE49CFC800312024930D507C3E42E
:060243009FFFE49EFE2275
:1003410002043AE493A3F8E493A34003F68001F294
:1003510008DFF48029E493A3F85407240CC8C333BD
:10036100C4540F4420C8834004F456800146F6DF8C
:10037100E4800B010204081020408090050BE47E0C
:10038100019360BCA3FF543F30E509541FFEE49381
:10039100A360010ECF54C025E060A840B8E493A348
:1003A100FAE493A3F8E493A3C8C582C8CAC583CA73
:1003B100F0A3C8C582C8CAC583CADFE9DEE780BE2B
:0105120000E8
:10024900BC000BBE0029EF8DF084FFADF022E4CC99
:10025900F875F008EF2FFFEE33FEEC33FCEE9DEC62
:10026900984005FCEE9DFE0FD5F0E9E4CEFD22EDA8
:10027900F8F5F0EE8420D21CFEADF075F008EF2FF2
:10028900FFED33FD4007985006D5F0F222C398FDE3
:050299000FD5F0EA2280
:00000001FF
