:100222005041535357442050524F54454354454430
:100232000020202047415241474520444F4F520061
:10024200202020204F50454E494E4700544845201B
:1002520047415241474520444F4F52002020444FCE
:100262004F52204F50454E45442100444F4F52209B
:1002720049532000414C5245414459204F50454E6C
:100282004544210020202020434C4F53494E470033
:100292002020444F4F5220434C4F534544210044A9
:1002A2004F4F5220495300414C524541445920433B
:0702B2004C4F5345442100AD
:07043200011803020800009D
:100345001204231203CB7BFF7A0279221203877FE3
:10035500C01204037BFF7A0279331203877FD07EB4
:10036500071203B0E5B0540FFFBF0B03120003E5FE
:0C037500B0540FFFBF0CED12011380E824
:10000300E5B0540F640B60F8E5B0540F750A00F5C2
:100013000BE5B0540F640160F8E5B0540F750C00A4
:10002300F50DE5B0540F640260F8E5B0540F750E9A
:1000330000F50FE5B0540F640360F8E5B0540F7595
:100043001000F511E5B0540F640460F8E5B0540FE7
:10005300751400F515E50B6401450A705EE50D6442
:1000630002450C7056E50F6403450E704EE51164AE
:100073000445107046E515640B4514703EE50945CB
:100083000870387F011204037F801204037BFF7A18
:100093000279421203877FC0120403120381D290B4
:1000A300C2911203AC1203FD7BFF7A02795E120345
:1000B300871203AC75080075090122E50B6401453D
:1000C3000A704CE50D6402450C7044E50F6403456A
:1000D3000E703CE511640445107034E515640B455E
:1000E30014702CE5096401450870247F0112040390
:1000F3007F801204037BFF7A02796D1203877FC02E
:100103001204037BFF7A0279761203871203AC226F
:10011300E5B0540F640C60F8E5B0540F750A00F5B0
:100123000BE5B0540F640160F8E5B0540F750C0093
:10013300F50DE5B0540F640260F8E5B0540F750E89
:1001430000F50FE5B0540F640360F8E5B0540F7584
:100153001000F511E5B0540F640460F8E5B0540FD6
:10016300751200F513E50B6401450A705FE50D6434
:1001730002450C7057E50F6403450E704FE511649B
:100183000445107047E513640C4512703FE509649C
:1001930001450870377F011204037F801204037B3B
:1001A300FF7A0279861203877FC012040312038148
:1001B300C290D2911203AC1203FD7BFF7A027992B3
:1001C3001203871203ACE4F508F50922E50B640179
:1001D300450A704AE50D6402450C7042E50F64035D
:1001E300450E703AE511640445107032E513640C52
:1001F3004512702AE509450870247F011204037F24
:10020300801204037BFF7A0279A11203877FC01255
:0F02130004037BFF7A0279A91203871203AC223E
:0F042300E4F5A0C296C297C291C29075B0FF22B5
:1003CB007F011204037F381204037F0C1204037F96
:0903DB00061204037F80020403F2
:0603FD00C291C2907F01D5
:100403008FA0C296D2977F027E001203B0C29722BA
:100413008FA0D296D2977F027E001203B0C297229A
:060381007BFF7A02794EB9
:100387008B198A1A891BAB19AA1AA91B1203E460D5
:1003970013051BE51B7002051A14F91203E4FF127B
:0503A700041380E222B6
:0403AC007FB87E0B8D
:1003B000D3EF9400EE64809480400F7DFADDFE7DE3
:0A03C000FADDFEEF1F70E91E80E673
:0103CA002210
:030000000202B940
:0C02B900787FE4F6D8FD75811B0203007D
:1003E400BB010689828A83E0225002E722BBFE0217
:0903F400E32289828A83E493224A
:1002C500020345E493A3F8E493A34003F68001F207
:1002D50008DFF48029E493A3F85407240CC8C3333A
:1002E500C4540F4420C8834004F456800146F6DF09
:1002F500E4800B0102040810204080900432E47E63
:10030500019360BCA3FF543F30E509541FFEE493FD
:10031500A360010ECF54C025E060A840B8E493A3C4
:10032500FAE493A3F8E493A3C8C582C8CAC583CAEF
:10033500F0A3C8C582C8CAC583CADFE9DEE780BEA7
:0104390000C2
:00000001FF
