:1003E200546F204C6F636B2053797374656D0054A6
:1003F2006F20556E4C6F636B2053797374656D007B
:10040200456E7465722050617373776F7264005F1A
:100412005F5F5F5F5F5F5F006E6577207061737320
:10042200776F72642069730077726F6E67207061F4
:100432007373776F72640053797374656D204C6FB8
:10044200636B65640053797374656D20556E6C6FD0
:10045200636B65640053797374656D2048414E4740
:1004620021212E2E00202A205072657373205245BE
:10047200534554202A00736574206E65772070619D
:100482007373776F72640028352064696769742911
:100492003A0070617373776F72642063616E2062D9
:1004A2006520736574006F6E6C79206F6E636500F2
:0706B8000522313233343515
:10063C00E4FFFEE4FDFC0DBD00010CBC27F8BD1071
:0C064C00F50FBF00010EEF64324E70E7A6
:01065800227F
:0F068B008F1C1206A9C2A7851C80D2A6C2A62268
:0F069A008F211206A9D2A7852180D2A6C2A6223F
:0E06A900E4FFFE0FBF00010EBE05F8BFDCF53A
:0106B7002220
:0A05E200C2A0D2A37BFF7A04792A9D
:0605EC008B1C8A1D891E14
:1005F2001206768F1FE4F520E520C3951F501CAB31
:100602001CAA1DA91E1204B2FF12069A7401251E0D
:0B061200F51EE4351DF51D052080DD00
:01061D0022BA
:10065900E4FFFEE4FDFC0DBD00010CBC03F8BDE8A0
:0C066900F50FBF00010EEF64644E70E757
:010675002262
:04061E00AB07AA0676
:10062200900000C3E5829BE5839A500DD2A5120685
:0906320059C2A5120659A380EA81
:01063B00229C
:10000300E4F508F509F50CF50DF50EF50FF514F506
:1000130015F516F517F518F519F51AF51BF5B0F5DD
:10002300A07F3C12068B7F0E12068BE4F510F511B0
:10003300F50AF50B7F0112068BE51745167BFF705A
:10004300067A0379E280047A0379F11205EC7FC022
:1000530012068B7BFF7A0479021205EC12063C7FB1
:10006300C612068B7BFF7A0479111205EC7FC61248
:10007300068B7590F0E59064F060FAE59064F0709B
:10008300030203BC7590FEE59064EE701DE50F4519
:100093000E70097F2A12069A742780077F31120691
:1000A3009A7422250BF876318044E59064DE701D46
:1000B300E50F450E70097F2A12069A742780077F81
:1000C3003412069A7422250BF876348021E5906465
:1000D300BE7024E50F450E70097F2A12069A742715
:1000E30080077F3712069A7422250BF87637750836
:1000F3000075090102023AE590647E600302023A48
:100103007F0112068BE50F6401450E70387BFF7A81
:1001130004791A1205EC7FC012068BE4F512F5136D
:1001230074222513F8E6FF12069A0513E5137002ED
:100133000512C39405E5126480948040E3E4F50E50
:10014300F50F0201FEE50B6405450A60030201ECAD
:10015300F52CF52DAF2D74272FF8E6FE74222FF81A
:10016300E6B5060A050DE50D7018050C8014120599
:10017300E27F027E0012061E051BE51B7017051A9F
:100183008013052DE52D7002052CC39405E52C6421
:1001930080948040BFE50D6405450C705E0515E550
:1001A3001570020514AE14FF7C007D021204CBED22
:1001B30064014C7013F516751701D2A4C2A1D2A223
:1001C3007BFF7A0479398011E4F516F517C2A4C2CE
:1001D300A2D2A17BFF7A0479471205ECD2A0C2A375
:1001E3007F017E0012061E80121205E27F027E004E
:1001F30012061E051BE51B7002051AE51B64034569
:100203001A70237F8012068B7BFF7A0479571205BD
:10021300EC7FC012068B7BFF7A0479671205EC7FB3
:10022300017E0012061E7510007511017508007518
:100233000901E4F50CF50DE50964014508700302B5
:1002430003BC7590FDE59064ED701DE50F450E70E0
:10025300097F2A12069A742780077F3212069A743E
:1002630022250BF876328067E59064DD701DE50F7B
:10027300450E70097F2A12069A742780077F35126C
:10028300069A7422250BF876358044E59064BD7098
:100293001DE50F450E70097F2A12069A7427800701
:1002A3007F3812069A7422250BF876388021E59060
:1002B300647D7021E50F450E70097F2A12069A743A
:1002C3002780077F3012069A7422250BF876307543
:1002D3000800750901E5096401450870030203BCC0
:1002E3007590FBE59064EB701EE50F450E70097F7A
:1002F3002A12069A742780077F3312069A742225DE
:100303000BF876330203ABE59064DB701DE50F4514
:100313000E70097F2A12069A742780077F36120609
:100323009A7422250BF87636807EE59064BB701DA7
:10033300E50F450E70097F2A12069A742780077FFE
:100343003912069A7422250BF87639805BE590649E
:100353007B705B7F0112068BE5194518702D7BFFBF
:100363007A0479781205EC7FC012068B7BFF7A043E
:1003730079891205EC750E00750F0174FFF50AF506
:100383000B0519E51970210518801D7BFF7A047987
:10039300941205EC7FC312068B7BFF7A0479A812B3
:1003A30005EC751000751101750800750901E50963
:1003B30064014508600302007E120659050BE50B34
:1003C3007002050AE4F508F509E51B6403451A7094
:0F03D3000280FEE5114510600302002E02007546
:03000000020556A0
:0C055600787FE4F6D8FD75812D02059D2C
:1004B200BB010689828A83E0225002E722BBFE0248
:0904C200E32289828A83E493227B
:1004CB00C2D5EC30E709B2D5E4C39DFDE49CFCEE4C
:1004DB0030E715B2D5E4C39FFFE49EFE120501C3BE
:1004EB00E49DFDE49CFC800312050130D507C3E4B9
:0604FB009FFFE49EFE22BB
:10067600E4FFFE1204B2600C0FEF70010E09E97080
:05068600F20A80EF22E2
:10056200020003E493A3F8E493A34003F68001F2AC
:1005720008DFF48029E493A3F85407240CC8C3339A
:10058200C4540F4420C8834004F456800146F6DF69
:10059200E4800B01020408102040809006B8E47E3B
:1005A200019360BCA3FF543F30E509541FFEE4935E
:1005B200A360010ECF54C025E060A840B8E493A325
:1005C200FAE493A3F8E493A3C8C582C8CAC583CA50
:1005D200F0A3C8C582C8CAC583CADFE9DEE780BE08
:0106BF00003A
:10050100BC000BBE0029EF8DF084FFADF022E4CCDE
:10051100F875F008EF2FFFEE33FEEC33FCEE9DECA7
:10052100984005FCEE9DFE0FD5F0E9E4CEFD22EDED
:10053100F8F5F0EE8420D21CFEADF075F008EF2F37
:10054100FFED33FD4007985006D5F0F222C398FD28
:050551000FD5F0EA22C5
:00000001FF
