:1000030047617262616765204F766572666C6F77D0
:1000130000496E64696361746F722E00537973745F
:10002300656D20697320526561647921004E6F20EC
:100033004F766572666C6F7720210042696E204FA0
:10004300766572666C6F7700446574656374656486
:1000530020210041540041542B434D47463D31007C
:1000630053656E64696E67004D6573736167652ED2
:100073002E2E0041542B434D47533D00383030372B
:100083003831373630320042696E204F76657266FA
:100093006C6F772021004D6573736167652053652D
:0400A3006E74210056
:03045B000113008A
:10014B001204391204001204477BFF7A0079031260
:10015B0003747FC01204197BFF7A007914120374A5
:10016B001203C37F011204197F801204197BFF7ADB
:10017B0000791F1203747FE87E031203C77F0112FD
:10018B0004197F801204193090137F801204197B9D
:10019B00FF7A0079301203741203C380EA2090E7D0
:1001AB007F887E131203C72090DDD2917F0112044A
:1001BB00197F801204197BFF7A00793E1203747F3A
:1001CB00C01204197BFF7A00794B1203741203C31C
:0901DB00E51370D312027080CE0E
:0E043900E4F5A0C280C281C2B5D290C2912269
:100400007F011204197F381204197F0C1204197F1E
:09041000061204197F8002041990
:100419008FA0C280D2817F027E001203C7C28122CF
:100429008FA0D280D2817F027E001203C7C28122AF
:100374008B108A118912AB10AA11A9121200A7605E
:10038400130512E5127002051114F91200A7FF12E9
:05039400042980E222B3
:0402FB008E088F09D1
:1002FF00750A01C3E5086480948050107F2D1204A5
:10030F0029C3E49509F509E49508F508E5094508B9
:10031F0070057F30120429D3E5099400E508648045
:10032F0094804029AE08AF097C007D0A1200C0ED11
:10033F002430FF740B250AF8A607AE08AF097C001E
:10034F007D0A1200C08E088F09050A80CA150AE5BA
:10035F000AD39400400E740B250AF8E6FF12042905
:04036F00150A80EB00
:010373002267
:0C044700758920758DFD759850D28E22AD
:100399008B108A118912AB10AA11A9121200A76039
:1003A900130512E5127002051114F91200A7FF12C4
:0503B900045380E22264
:080453008F993099FDC2992236
:100270007513017F021203E27BFF7A0079561203A5
:10028000991203C37F0D1204537BFF7A0079591230
:1002900003991203C31203BE7F011204197BFF7A74
:1002A0000079631203747FC01204197BFF7A00790E
:1002B0006B1203747BFF7A0079761203997F221206
:1002C00004537BFF7A00797F1203997F221203C0C7
:1002D0001203BE7BFF7A00798A1203997F1A1203F8
:1002E000C07F0D1204537F011204197BFF7A00793D
:0B02F000991203747FD07E070203C741
:0903BE007F0D1204537FD07E076D
:1003C700D3EF9400EE64809480400F7DFADDFE7DCC
:0A03D700FADDFEEF1F70E91E80E65C
:0103E10022F9
:1003E200AC07ECD394004015D2B57FF47E01120322
:0E03F200C7C2B57FF47E011203C71C80E5224E
:030000000201E416
:0C01E400787FE4F6D8FD75811302022B31
:1000A700BB010689828A83E0225002E722BBFE0257
:0900B700E32289828A83E493228A
:1000C000C2D5EC30E709B2D5E4C39DFDE49CFCEE5B
:1000D00030E715B2D5E4C39FFFE49EFE1200F6C3DD
:1000E000E49DFDE49CFC80031200F630D507C3E4D8
:0600F0009FFFE49EFE22CA
:1001F00002014BE493A3F8E493A34003F68001F2D9
:1002000008DFF48029E493A3F85407240CC8C3330F
:10021000C4540F4420C8834004F456800146F6DFDE
:10022000E4800B010204081020408090045BE47E0F
:10023000019360BCA3FF543F30E509541FFEE493D3
:10024000A360010ECF54C025E060A840B8E493A39A
:10025000FAE493A3F8E493A3C8C582C8CAC583CAC5
:10026000F0A3C8C582C8CAC583CADFE9DEE780BE7D
:01045E00009D
:1000F600BC000BBE0029EF8DF084FFADF022E4CCEE
:10010600F875F008EF2FFFEE33FEEC33FCEE9DECB6
:10011600984005FCEE9DFE0FD5F0E9E4CEFD22EDFC
:10012600F8F5F0EE8420D21CFEADF075F008EF2F46
:10013600FFED33FD4007985006D5F0F222C398FD37
:050146000FD5F0EA22D4
:00000001FF
