:1000B00044616E676572212121004C5047204761E1
:1000C00073204C65616B6167650020204C504720B0
:1000D0004C65616B61676500202020446574656331
:1000E00074696F6E0041540041542B434D47463DA7
:1000F000310053656E64696E67004D6573736167A7
:10010000652E2E2E0041542B434D47533D00383071
:100110003037383137363032004C50472047415362
:10012000204C65616B6167652021004D65737361CB
:1001300067652053656E7421004D65737361676553
:1001400020686173206265656E0053656E7420746B
:080150006F204F776E6572000D
:0304790001160069
:03000300020301F4
:10030100C0E0C0F0C083C082C0D075D000C000C0C2
:1003110001C002C003C004C005C006C0077F0112AE
:1003210004377F801204371203677FC01204377BC2
:10033100FF7A0079BA12036D7F02120400E516708C
:10034100031200067F011204377F80120437120363
:10035100677FC01204377BFF7A0079BA12036D7F81
:060361000112040080F906
:1003920012045712041E1204657BFF7A0079CA12F6
:1003A200036D7FC01204377BFF7A0079D812036D88
:0503B2001203E180FED2
:0E045700E4F5A0C2B3C2B4C2B5D2AFD2A8229F
:10041E007F011204377F381204377F0C1204377FA6
:09042E00061204377F8002043736
:100437008FA0C2B3D2B47F027E001203E5C2B422FA
:100447008FA0D2B3D2B47F027E001203E5C2B422DA
:060367007BFF7A0079B073
:10036D008B138A148915AB13AA14A91512015860A1
:10037D00130515E5157002051414F9120158FF1235
:05038D00044780E2229C
:040288008E088F0944
:10028C00750A01C3E5086480948050107F2D120418
:10029C0047C3E49509F509E49508F508E50945080F
:1002AC0070057F30120447D3E5099400E50864809B
:1002BC0094804029AE08AF097C007D0A120171EDD3
:1002CC002430FF740B250AF8A607AE08AF097C0092
:1002DC007D0A1201718E088F09050A80CA150AE57C
:1002EC000AD39400400E740B250AF8E6FF1204475B
:0402FC00150A80EB74
:0103000022DA
:0C046500758920758DFD759850D28E228F
:1003B7008B108A118912AB10AA11A9121201586069
:1003C700130512E5127002051114F9120158FF12F4
:0503D700047180E22228
:080471008F993099FDC2992218
:100006007516017F021204007BFF7A0079E5120360
:10001600B71203E17F0D1204717BFF7A0079E812B3
:1000260003B71203E11203DC7F011204377BFF7A68
:100036000079F212036D7FC01204377BFF7A0079D4
:10004600FA12036D7BFF7A0179051203B77F22123C
:1000560004717BFF7A01790E1203B77F221203DE49
:100066001203DC7BFF7A0179191203B77F1A120398
:10007600DE7F0D1204717F011204377BFF7A01794E
:100086002B12036D1203E17F011204377BFF7A0105
:10009600793912036D7FC01204377BFF7A01794AE2
:0A00A60012036D7FD07E070203E510
:0903DC007F0D1204717FD07E0731
:1003E500D3EF9400EE64809480400F7DFADDFE7DAE
:0A03F500FADDFEEF1F70E91E80E63E
:0103FF0022DB
:10040000AC07ECD394004015D2B57FF47E01120303
:0E041000E5C2B57FF47E011203E51C80E522F3
:030000000201FCFE
:0C01FC00787FE4F6D8FD758116020243FE
:10015800BB010689828A83E0225002E722BBFE02A5
:09016800E32289828A83E49322D8
:10017100C2D5EC30E709B2D5E4C39DFDE49CFCEEA9
:1001810030E715B2D5E4C39FFFE49EFE1201A7C379
:10019100E49DFDE49CFC80031201A730D507C3E474
:0601A1009FFFE49EFE2218
:10020800020392E493A3F8E493A34003F68001F277
:1002180008DFF48029E493A3F85407240CC8C333F7
:10022800C4540F4420C8834004F456800146F6DFC6
:10023800E4800B0102040810204080900479E47ED9
:10024800019360BCA3FF543F30E509541FFEE493BB
:10025800A360010ECF54C025E060A840B8E493A382
:10026800FAE493A3F8E493A3C8C582C8CAC583CAAD
:10027800F0A3C8C582C8CAC583CADFE9DEE780BE65
:01047C00007F
:1001A700BC000BBE0029EF8DF084FFADF022E4CC3C
:1001B700F875F008EF2FFFEE33FEEC33FCEE9DEC05
:1001C700984005FCEE9DFE0FD5F0E9E4CEFD22ED4B
:1001D700F8F5F0EE8420D21CFEADF075F008EF2F95
:1001E700FFED33FD4007985006D5F0F222C398FD86
:0501F7000FD5F0EA2223
:00000001FF
