:1000160044616E676572212121004C50472047617B
:1000260073204C65616B61676500426520616C6594
:1000360072742100496E7472756465722061740071
:100046005468652047617465210020486F6D6520FE
:10005600536563757269747920200020486F6D6559
:10006600206973205361666500486F6D652069736A
:10007600206E6F7420536166650046697265204480
:1000860065746563746564004C504720476173204E
:100096004C65616B616765202100496E74727564F9
:1000A6006572204F7574736964650041540041544C
:1000B6002B434D47463D310053656E64696E6700BC
:1000C6004D6573736167652E2E2E0041542B434D8B
:1000D60047533D00383030373831373630320046F6
:1000E60069726520696E20796F757220486F6D653B
:1000F600004D6573736167652053656E7421004D0D
:1001060065737361676520686173206265656E005B
:1001160053656E7420746F204F776E6572004C5075
:100126004720474153204C65616B6167652021007C
:0C000600011900011B00011C00011A037D
:030003000205C72C
:1005C700C0E0C0F0C083C082C0D075D000C000C0FA
:1005D70001C002C003C004C005C006C0077F0112E6
:1005E70007057F801207057BFF7A007916120662DE
:1005F7007FC01207057BFF7A0079201206627F020F
:100607001206ABE51B700312031CD007D006D005FA
:10061700D004D003D002D001D000D0D0D082D08374
:05062700D0F0D0E0322C
:0300130002055192
:10055100C0E0C0F0C083C082C0D075D000C000C070
:1005610001C002C003C004C005C006C0077F01125C
:1005710007057F801207057BFF7A0079301206623A
:1005810012068C7F801207057BFF7A00793A1206EA
:10059100627FC01207057BFF7A0079461206627FEF
:1005A100021206ABE51C70031203B4D007D006D0CB
:1005B10005D004D003D002D001D000D0D0D082D059
:0605C10083D0F0D0E0320F
:100136001207151206E51207357F011207057BFF28
:100146007A00795012066212068C7F011207051298
:1001560006C98F1DE51DC394285018E51B7014E5CC
:100166001C70107F801207057BFF7A0079611206EA
:100176006280E1E51DD3942840207F011207051215
:10018600065C7FC01207057BFF7A00798012066243
:10019600E519700312028412068CE51BB401197F5F
:1001A6000112070512065C7FC01207057BFF7A0065
:1001B600798E12066212068CE51C640170917F012D
:1001C60012070512065C7FC01207057BFF7A0079CD
:0A01D600A012066212068C02015509
:10071500E4F5A0C280C281C282D2AFD2A8D2AA22F9
:1006E5007F011207057F381207057F0C1207057F6A
:0906F500061207057F80020705CB
:0706FE007F0D1207417F018F
:100705008FA0C280D2817F027E00120690C2812214
:100725008FA0D280D2817F027E00120690C28122E4
:06065C007BFF7A00796FBC
:100662008B0E8A0F8910AB0EAA0FA9101201E0603F
:10067200130510E5107002050F14F91201E0FF12C4
:05068200072580E222C3
:0404D8008E118F12E0
:1004DC00751301C3E5116480948050107F2D1207B1
:1004EC0025C3E49512F512E49511F511E5124511A9
:1004FC0070057F30120725D3E5129400E511648056
:10050C0094804029AE11AF127C007D0A1201F9EDE6
:10051C002430FF74142513F8A607AE11AF127C001B
:10052C007D0A1201F98E118F12051380CA1513E57D
:10053C0013D39400400E74142513F8E6FF1207250C
:04054C00151380EB18
:010550002288
:1006C900C2B5D2B77F027E00120690D2B520B6FD20
:0B06D900C2B77F027E00120690AF90B7
:0106E40022F3
:0C073500758920758DFD759850D28E22BC
:0B062C007F0D1207417BFF7A0079B4BC
:100637008B0E8A0F8910AB0EAA0FA9101201E0606A
:10064700130510E5107002050F14F91201E0FF12EF
:05065700074180E222D2
:080741008F993099FDC2992245
:100284007519017F021206AB7BFF7A0079B1120661
:100294003712068C12062C12068C1206877F011266
:1002A40007057BFF7A0079BE1206627FC01207053C
:1002B4007BFF7A0079C61206627BFF7A0079D1123D
:1002C40006377F221207417BFF7A0079DA1206375C
:1002D4007F221206891206877BFF7A0079E51206CF
:1002E400377F1A1206891206FE7BFF7A0079F7120D
:1002F400066212068C7F011207057BFF7A017905DD
:100304001206627FC01207057BFF7A017916120676
:08031400627FD07E0702069013
:10031C00751B017F021206AB7BFF7A0079B11206C6
:10032C003712068C12062C12068C1206877F0112CD
:10033C0007057BFF7A0079BE1206627FC0120705A3
:10034C007BFF7A0079C61206627BFF7A0079D112A4
:10035C0006377F221207417BFF7A0079DA120637C3
:10036C007F221206891206877BFF7A0179241206F6
:10037C00377F1A1206891206FE7BFF7A0079F71274
:10038C00066212068C7F011207057BFF7A01790544
:10039C001206627FC01207057BFF7A0179161206DE
:0803AC00627FD07E070206907B
:1003B400751C017F021206AB7BFF7A0079B112062D
:1003C4003712068C12062C12068C1206877F011235
:1003D40007057BFF7A0079BE1206627FC01207050B
:1003E4007BFF7A0079C61206627BFF7A0079D1120C
:1003F40006377F221207417BFF7A0079DA1206372B
:100404007F221206891206877BFF7A0079A01206E2
:10041400377F1A1206891206FE7BFF7A0079F712DB
:10042400066212068C7F011207057BFF7A017905AB
:100434001206627FC01207057BFF7A017916120645
:08044400627FD07E07020690E2
:090687007F0D1207417FD07E07B0
:10069000D3EF9400EE64809480400F7DFADDFE7D00
:0A06A000FADDFEEF1F70E91E80E690
:0106AA00222D
:1006AB00AC07ECD394004015D2827FF47E01120686
:0E06BB0090C2827FF47E011206901C80E52220
:0300000002044CAB
:0C044C00787FE4F6D8FD75811D02049352
:1001E000BB010689828A83E0225002E722BBFE021D
:0901F000E32289828A83E4932250
:1001F900C2D5EC30E709B2D5E4C39DFDE49CFCEE21
:1002090030E715B2D5E4C39FFFE49EFE12022FC367
:10021900E49DFDE49CFC800312022F30D507C3E462
:060229009FFFE49EFE228F
:10045800020136E493A3F8E493A34003F68001F283
:1004680008DFF48029E493A3F85407240CC8C333A5
:10047800C4540F4420C8834004F456800146F6DF74
:10048800E4800B0102040810204080900006E47EFE
:10049800019360BCA3FF543F30E509541FFEE49369
:1004A800A360010ECF54C025E060A840B8E493A330
:1004B800FAE493A3F8E493A3C8C582C8CAC583CA5B
:1004C800F0A3C8C582C8CAC583CADFE9DEE780BE13
:0100120000ED
:10022F00BC000BBE0029EF8DF084FFADF022E4CCB3
:10023F00F875F008EF2FFFEE33FEEC33FCEE9DEC7C
:10024F00984005FCEE9DFE0FD5F0E9E4CEFD22EDC2
:10025F00F8F5F0EE8420D21CFEADF075F008EF2F0C
:10026F00FFED33FD4007985006D5F0F222C398FDFD
:05027F000FD5F0EA229A
:00000001FF
