:10015400426520616C6572742100496E7472756425
:1001640065722061740054686520476174652100DC
:10017400204275726C676C617220416C61726D20F3
:100184000041540041542B434D47463D31005365D3
:100194006E64696E67004D6573736167652E2E2EFC
:1001A4000041542B434D47533D00383030373831EC
:1001B4003736303200496E747275646572204F753B
:1001C4007473696465004D65737361676520536575
:1001D4006E7421004D6573736167652068617320D7
:1001E4006265656E0053656E7420746F204F776E80
:0301F40065720031
:030477000116006B
:030003000202FCFA
:1002FC00C0E0C0F0C083C082C0D075D000C000C0C8
:10030C0001C002C003C004C005C006C0077F0112B3
:10031C0004357F801204357BFF7A017954120379FE
:10032C001203C87F801204351203737FC012043588
:10033C007BFF7A01796A1203797F021203E7E516D3
:10034C0070031200067F011204357F8012043512EF
:10035C0003737FC01204357BFF7A01796A1203792B
:07036C007F011203E780F995
:10041E001204551204051204637BFF7A01797412DB
:07042E0003791203C880FEF0
:0E045500E4F5A0C2B3C2B4C2B5D2AFD2A822A1
:100405007F011204357F381204357F0C1204357FC5
:09041500061204357F8002043553
:100435008FA0C2B3D2B47F027E001203CCC2B42215
:100445008FA0D2B3D2B47F027E001203CCC2B422F5
:060373007BFF7A01795EB8
:100379008B138A148915AB13AA14A9151200B0603E
:10038900130515E5157002051414F91200B0FF12D2
:05039900044580E22292
:040283008E088F0949
:10028700750A01C3E5086480948050107F2D12041D
:1002970045C3E49509F509E49508F508E509450816
:1002A70070057F30120445D3E5099400E5086480A2
:1002B70094804029AE08AF097C007D0A1200C9ED81
:1002C7002430FF740B250AF8A607AE08AF097C0097
:1002D7007D0A1200C98E088F09050A80CA150AE52A
:1002E7000AD39400400E740B250AF8E6FF12044562
:0402F700150A80EB79
:0102FB0022E0
:0C046300758920758DFD759850D28E2291
:10039E008B108A118912AB10AA11A9121200B0602B
:1003AE00130512E5127002051114F91200B0FF12B6
:0503BE00046F80E22243
:08046F008F993099FDC299221A
:100006007516017F021203E77BFF7A0179851203D9
:100016009E1203C87F0D12046F7BFF7A0179881246
:10002600039E1203C81203C37F011204357BFF7AB5
:100036000179921203797FC01204357BFF7A017928
:100046009A1203797BFF7A0179A512039E7F221209
:10005600046F7BFF7A0179AE12039E7F221203C5DD
:100066001203C37BFF7A0179B912039E7F1A12032A
:10007600C57F0D12046F7F011204357BFF7A01796B
:10008600CA1203791203C87F011204357BFF7A0175
:1000960079D81203797FC01204357BFF7A0179E99A
:0A00A6001203797FD07E070203CC1D
:0903C3007F0D12046F7FD07E074C
:1003CC00D3EF9400EE64809480400F7DFADDFE7DC7
:0A03DC00FADDFEEF1F70E91E80E657
:0103E60022F4
:1003E700AC07ECD394004015D2B57FF47E0112031D
:0E03F700CCC2B57FF47E011203CC1C80E5223F
:030000000201F703
:0C01F700787FE4F6D8FD75811602023E08
:1000B000BB010689828A83E0225002E722BBFE024E
:0900C000E32289828A83E4932281
:1000C900C2D5EC30E709B2D5E4C39DFDE49CFCEE52
:1000D90030E715B2D5E4C39FFFE49EFE1200FFC3CB
:1000E900E49DFDE49CFC80031200FF30D507C3E4C6
:0600F9009FFFE49EFE22C1
:1002030002041EE493A3F8E493A34003F68001F2EF
:1002130008DFF48029E493A3F85407240CC8C333FC
:10022300C4540F4420C8834004F456800146F6DFCB
:10023300E4800B0102040810204080900477E47EE0
:10024300019360BCA3FF543F30E509541FFEE493C0
:10025300A360010ECF54C025E060A840B8E493A387
:10026300FAE493A3F8E493A3C8C582C8CAC583CAB2
:10027300F0A3C8C582C8CAC583CADFE9DEE780BE6A
:01047A000081
:1000FF00BC000BBE0029EF8DF084FFADF022E4CCE5
:10010F00F875F008EF2FFFEE33FEEC33FCEE9DECAD
:10011F00984005FCEE9DFE0FD5F0E9E4CEFD22EDF3
:10012F00F8F5F0EE8420D21CFEADF075F008EF2F3D
:10013F00FFED33FD4007985006D5F0F222C398FD2E
:05014F000FD5F0EA22CB
:00000001FF
