:1001780020202020204449474954414C2020002079
:100188002020544845524D4F4D4554455200546522
:0D0198006D70657261747572653A00430008
:10012000750803E4F5A0C2B0C2B11201EB7F011261
:1001300002247BFF7A0179781201A57FC012022484
:100140007BFF7A0179871201A57FD07E071201D04B
:100150007F011202247BFF7A0179961201A57F8C20
:100160001202241202048F117E001200A77BFF7A74
:080170000179A31201A580E64C
:1001EB007F011202247F381202247F0C1202247F1B
:0901FB00061202247F8002022496
:0A0224008FA0C2B01201CAC2B122BD
:0A022E008FA0D2B01201CAC2B122A3
:1001A5008B098A0A890BAB09AA0AA90B12000360FD
:1001B50013050BE50B7002050A14F9120003FF1273
:0501C500022E80E22281
:0400A7008E098F0A25
:1000AB00750B01C3E5096480948050107F2D1202FB
:1000BB002EC3E4950AF50AE49509F509E50A450905
:1000CB0070057F3012022ED3E50A9400E509648097
:1000DB0094804029AE09AF0A7C007D0A12001CED0A
:1000EB002430FF740C250BF8A607AE09AF0A7C0071
:1000FB007D0A12001C8E098F0A050B80CA150BE5B1
:10010B000BD39400400E740C250BF8E6FF12022E55
:04011B00150B80EB55
:01011F0022BD
:10020400C2B2D2B41201CCD2B220B3FDC2B4120134
:03021400CCAF90DC
:0102170022C4
:0601CA00D2B17F027E00AD
:1001D000D3EF9400EE64809480400F7DFADDFE7DC5
:0A01E000FADDFEEF1F70E91E80E655
:0101EA0022F2
:03000000020218E1
:0C021800787FE4F6D8FD7581110201200A
:10000300BB010689828A83E0225002E722BBFE02FB
:09001300E32289828A83E493222E
:10001C00C2D5EC30E709B2D5E4C39DFDE49CFCEEFF
:10002C0030E715B2D5E4C39FFFE49EFE120052C325
:10003C00E49DFDE49CFC800312005230D507C3E420
:06004C009FFFE49EFE226E
:10005200BC000BBE0029EF8DF084FFADF022E4CC92
:10006200F875F008EF2FFFEE33FEEC33FCEE9DEC5B
:10007200984005FCEE9DFE0FD5F0E9E4CEFD22EDA1
:10008200F8F5F0EE8420D21CFEADF075F008EF2FEB
:10009200FFED33FD4007985006D5F0F222C398FDDC
:0500A2000FD5F0EA2279
:00000001FF
