:03014500010803AB
:10000300C2A3C2A2C2A1C2A0D2B3D2B2D2B1D2B051
:100013007FE87E0312012A20B31320B21030B10D02
:1000230020B00AD2A0C2A1D2A2C2A380EA20B313F5
:1000330030B21020B10D20B00AC2A0C2A1D2A2C218
:10004300A380EA20B31320B21030B10D20B00AD23E
:10005300A0C2A1D2A2C2A380EA20B31330B210304F
:10006300B10D20B00AD2A0C2A1D2A2C2A380EA30AD
:10007300B31320B21020B10D20B00AC2A0D2A1C286
:10008300A2D2A380EA20B38F30B28C20B18930B0E2
:0B00930086C2A0C2A1C2A2C2A380EAE4
:10012A00D3EF9400EE64809480400F7DFADDFE7D6B
:0A013A00FADDFEEF1F70E91E80E6FB
:010144002298
:0300000002009E5D
:0C009E00787FE4F6D8FD7581080200E5CB
:1000AA00020003E493A3F8E493A34003F68001F269
:1000BA0008DFF48029E493A3F85407240CC8C33357
:1000CA00C4540F4420C8834004F456800146F6DF26
:1000DA00E4800B0102040810204080900145E47E70
:1000EA00019360BCA3FF543F30E509541FFEE4931B
:1000FA00A360010ECF54C025E060A840B8E493A3E2
:10010A00FAE493A3F8E493A3C8C582C8CAC583CA0C
:10011A00F0A3C8C582C8CAC583CADFE9DEE780BEC4
:0101480000B6
:00000001FF
