:1003DB0020204D4F42494C452050484F4E4500443C
:1003EB0049414C4C494E472E2E2E00454E544552FA
:1003FB002054484520434F44453A003100320033E6
:10040B00003400350036003700380039002A003040
:03041B00002300BB
:10000300751003E4F5A0C2B0C2B11204647BFF7A99
:100013000379DB12041E7FD07E071204497F01128D
:1000230004897BFF7A0379EA12041E7FD07E0712CC
:1000330004497F011204897F801204897BFF7A03BC
:1000430079F612041EC293C292C291C290D297D281
:1000530096D295D294C2B7C2B6C2B5C2B4C293C245
:1000630092C291C29020943CD293D292D291D290D8
:10007300C2902094077F017E00120179D290C29131
:100083002094077F057E00120179D291C2922094B9
:10009300077F097E00120179D292C2932094BE7F1A
:1000A3000D02012720953ED293D292D291D290C2D3
:1000B300902095077F027E00120179D290C2912091
:1000C30095077F067E00120179D291C2922095078F
:1000D3007F0A7E00120179D292C293309503020007
:1000E300607F0E803F209644D293D292D291D290D9
:1000F300C2902096077F037E00120179D290C291AD
:100103002096077F077E00120179D291C292209632
:10011300077F0B7E00120179D292C29330960302BD
:1001230000607F0F7E0012017902006030970302A6
:100133000060D293D292D291D290C2902097077F3F
:10014300047E00120179D290C2912097077F087E26
:1001530000120179D291C2922097077F0C7E001280
:100163000179D292C2933097030200607F107E0020
:0601730012017902006098
:10017900EE60030202BDEF14B40F0040030202BD9A
:1001890090019775F003A4C58325F0C58373020117
:10019900C40201D70201EA0202BD0201FD020212F4
:1001A9000202260202BD02023A02024E0202620263
:1001B90002BD0202790202900202A77F011204899C
:1001C9007BFF7A04790612041EC2B70202727F010C
:1001D9001204897BFF7A04790812041EC2B702024D
:1001E900897F011204897BFF7A04790A12041EC2ED
:1001F900B70202B77F011204897BFF7A04790C12D6
:10020900041EC2B7D2B60202A27F011204897BFF83
:100219007A04790E12041EC2B7D2B6804E7F01123B
:1002290004897BFF7A04791012041EC2B7D2B68002
:10023900517F011204897BFF7A04791212041EC2CC
:10024900B7D2B6806B7F011204897BFF7A047914D7
:1002590012041ED2B7C2B680407F011204897BFF07
:100269007A04791612041ED2B7C2B6C2B5D2B42224
:100279007F011204897BFF7A04791812041ED2B710
:10028900C2B6D2B5C2B4227F011204897BFF7A04B7
:10029900791A12041EC2B7C2B6C2B5C2B4227F010E
:1002A9001204897BFF7A04791C12041ED2B7C2B6E4
:0502B900D2B5D2B42211
:100464007F011204897F381204897F0C1204897F6A
:09047400061204897F800204894C
:0A0489008FA0C2B0120443C2B122DA
:0A0493008FA0D2B0120443C2B122C0
:10041E008B118A128913AB11AA12A9131202BE6094
:10042E00130513E5137002051214F91202BEFF1222
:05043E00049380E2229E
:040362008E088F0969
:10036600750A01C3E5086480948050107F2D12043D
:1003760093C3E49509F509E49508F508E5094508E8
:1003860070057F30120493D3E5099400E508648074
:1003960094804029AE08AF097C007D0A1202D7ED91
:1003A6002430FF740B250AF8A607AE08AF097C00B7
:1003B6007D0A1202D78E088F09050A80CA150AE53A
:1003C6000AD39400400E740B250AF8E6FF12049334
:0403D600150A80EB99
:0103DA002200
:06044300D2B17F027E0031
:10044900D3EF9400EE64809480400F7DFADDFE7D49
:0A045900FADDFEEF1F70E91E80E6D9
:010463002276
:0300000002047D7A
:0C047D00787FE4F6D8FD758113020003BF
:1002BE00BB010689828A83E0225002E722BBFE023E
:0902CE00E32289828A83E4932271
:1002D700C2D5EC30E709B2D5E4C39DFDE49CFCEE42
:1002E70030E715B2D5E4C39FFFE49EFE12030DC3AA
:1002F700E49DFDE49CFC800312030D30D507C3E4A5
:060307009FFFE49EFE22B0
:10030D00BC000BBE0029EF8DF084FFADF022E4CCD4
:10031D00F875F008EF2FFFEE33FEEC33FCEE9DEC9D
:10032D00984005FCEE9DFE0FD5F0E9E4CEFD22EDE3
:10033D00F8F5F0EE8420D21CFEADF075F008EF2F2D
:10034D00FFED33FD4007985006D5F0F222C398FD1E
:05035D000FD5F0EA22BB
:00000001FF
