:1003D80020204D4F42494C452050484F4E4500443F
:1003E80049414C4C494E472E2E2E00454E544552FD
:1003F8002054484520434F44453A003100320033E9
:10040800003400350036003700380039002A003043
:03041800002300BE
:10000300751003E4F5A0C2B0C2B11204617BFF7A9C
:100013000379D812041B7FD07E071204467F011296
:1000230004867BFF7A0379E712041B7FD07E0712D5
:1000330004467F011204867F801204867BFF7A03C5
:1000430079F312041BC293C292C291C290D297D287
:1000530096D295D294C2B7C2B6C2B5C2B4C293C245
:1000630092C291C29020943CD293D292D291D290D8
:10007300C2902094077F017E00120179D290C29131
:100083002094077F057E00120179D291C2922094B9
:10009300077F097E00120179D292C2932094BE7F1A
:1000A3000D02012720953ED293D292D291D290C2D3
:1000B300902095077F027E00120179D290C2912091
:1000C30095077F067E00120179D291C2922095078F
:1000D3007F0A7E00120179D292C293309503020007
:1000E300607F0E803F209644D293D292D291D290D9
:1000F300C2902096077F037E00120179D290C291AD
:100103002096077F077E00120179D291C292209632
:10011300077F0B7E00120179D292C29330960302BD
:1001230000607F0F7E0012017902006030970302A6
:100133000060D293D292D291D290C2902097077F3F
:10014300047E00120179D290C2912097077F087E26
:1001530000120179D291C2922097077F0C7E001280
:100163000179D292C2933097030200607F107E0020
:0601730012017902006098
:10017900EE60030202BAEF14B40F0040030202BAA0
:1001890090019775F003A4C58325F0C58373020117
:10019900C40201D70201EB0202BA0201FE020211F6
:1001A9000202250202BA02023C0202500202620263
:1001B90002BA0202790202900202A47F01120486A5
:1001C9007BFF7A04790312041BC2B70202727F0112
:1001D9001204867BFF7A04790512041BC2B7C2B6E2
:1001E900804C7F011204867BFF7A04790712041B75
:1001F900C2B70202897F011204867BFF7A0479095A
:1002090012041BC2B70202B47F011204867BFF7A73
:1002190004790B12041BC2B7D2B6804F7F011204B6
:10022900867BFF7A04790D12041BC2B7D2B6D2B508
:10023900C2B4227F011204867BFF7A04790F12046B
:100249001BC2B7D2B6803B7F011204867BFF7A04BA
:10025900791112041BD2B7803E7F011204867BFFFD
:100269007A04791312041BD2B7C2B6C2B5D2B4222A
:100279007F011204867BFF7A04791512041BD2B719
:10028900C2B6D2B5D2B4227F011204867BFF7A04AA
:10029900791712041BC2B7C2B680127F01120486F5
:1002A9007BFF7A04791912041BD2B7D2B6C2B5C240
:0202B900B4226D
:100461007F011204867F381204867F0C1204867F76
:09047100061204867F8002048655
:0A0486008FA0C2B0120440C2B122E0
:0A0490008FA0D2B0120440C2B122C6
:10041B008B118A128913AB11AA12A9131202BB609A
:10042B00130513E5137002051214F91202BBFF1228
:05043B00049080E222A4
:04035F008E088F096C
:10036300750A01C3E5086480948050107F2D120440
:1003730090C3E49509F509E49508F508E5094508EE
:1003830070057F30120490D3E5099400E50864807A
:1003930094804029AE08AF097C007D0A1202D4ED97
:1003A3002430FF740B250AF8A607AE08AF097C00BA
:1003B3007D0A1202D48E088F09050A80CA150AE540
:1003C3000AD39400400E740B250AF8E6FF1204903A
:0403D300150A80EB9C
:0103D7002203
:06044000D2B17F027E0034
:10044600D3EF9400EE64809480400F7DFADDFE7D4C
:0A045600FADDFEEF1F70E91E80E6DC
:010460002279
:0300000002047A7D
:0C047A00787FE4F6D8FD758113020003C2
:1002BB00BB010689828A83E0225002E722BBFE0241
:0902CB00E32289828A83E4932274
:1002D400C2D5EC30E709B2D5E4C39DFDE49CFCEE45
:1002E40030E715B2D5E4C39FFFE49EFE12030AC3B0
:1002F400E49DFDE49CFC800312030A30D507C3E4AB
:060304009FFFE49EFE22B3
:10030A00BC000BBE0029EF8DF084FFADF022E4CCD7
:10031A00F875F008EF2FFFEE33FEEC33FCEE9DECA0
:10032A00984005FCEE9DFE0FD5F0E9E4CEFD22EDE6
:10033A00F8F5F0EE8420D21CFEADF075F008EF2F30
:10034A00FFED33FD4007985006D5F0F222C398FD21
:05035A000FD5F0EA22BE
:00000001FF
