:080006000608F9A4B0999282EA
:03000300020106F1
:070106007590C020B4FD322A
:030013000200CD1B
:1000CD00C0E0C0D075D000C00030B40D30B20A749D
:1000DD0008250EF8E6F59080F0D000D0D0D0E032B3
:1000A2007590C0D2B4D2AFD2A8D2AA20B4FDE4F5E2
:1000B2000E7408250EF8E6F5907F647E001200EDBE
:0B00C200050EE50EC3940640E880E345
:1000ED00D3EF9400EE9400400F7DFFDDFE7DFFDD2C
:0800FD00FEEF1F70EB1E80E80E
:0101050022D7
:03000000020016E5
:0C001600787FE4F6D8FD75810E02005DD5
:100022000200A2E493A3F8E493A34003F68001F252
:1000320008DFF48029E493A3F85407240CC8C333DF
:10004200C4540F4420C8834004F456800146F6DFAE
:10005200E4800B0102040810204080900006E47E38
:10006200019360BCA3FF543F30E509541FFEE493A3
:10007200A360010ECF54C025E060A840B8E493A36A
:10008200FAE493A3F8E493A3C8C582C8CAC583CA95
:10009200F0A3C8C582C8CAC583CADFE9DEE780BE4D
:01000E0000F1
:00000001FF
